{
  "contractName": "License",
  "abi": [
    {
      "constant": false,
      "inputs": [
        {
          "name": "_appId",
          "type": "uint256"
        },
        {
          "name": "_licenseIds",
          "type": "uint256[]"
        },
        {
          "name": "_licenseOfflines",
          "type": "bool[]"
        }
      ],
      "name": "setAppLicenseOnlineStates",
      "outputs": [],
      "payable": false,
      "stateMutability": "nonpayable",
      "type": "function"
    },
    {
      "constant": false,
      "inputs": [],
      "name": "unpause",
      "outputs": [],
      "payable": false,
      "stateMutability": "nonpayable",
      "type": "function"
    },
    {
      "constant": true,
      "inputs": [
        {
          "name": "_appId",
          "type": "uint256"
        }
      ],
      "name": "getAppLicenseList",
      "outputs": [
        {
          "name": "",
          "type": "uint256[]"
        },
        {
          "name": "",
          "type": "uint256[]"
        },
        {
          "name": "",
          "type": "bool[]"
        }
      ],
      "payable": false,
      "stateMutability": "view",
      "type": "function"
    },
    {
      "constant": true,
      "inputs": [],
      "name": "paused",
      "outputs": [
        {
          "name": "",
          "type": "bool"
        }
      ],
      "payable": false,
      "stateMutability": "view",
      "type": "function"
    },
    {
      "constant": true,
      "inputs": [],
      "name": "appFee",
      "outputs": [
        {
          "name": "",
          "type": "uint256"
        }
      ],
      "payable": false,
      "stateMutability": "view",
      "type": "function"
    },
    {
      "constant": false,
      "inputs": [
        {
          "name": "_newFee",
          "type": "uint256"
        }
      ],
      "name": "setAppFee",
      "outputs": [
        {
          "name": "",
          "type": "uint256"
        }
      ],
      "payable": false,
      "stateMutability": "nonpayable",
      "type": "function"
    },
    {
      "constant": false,
      "inputs": [],
      "name": "pause",
      "outputs": [],
      "payable": false,
      "stateMutability": "nonpayable",
      "type": "function"
    },
    {
      "constant": true,
      "inputs": [],
      "name": "owner",
      "outputs": [
        {
          "name": "",
          "type": "address"
        }
      ],
      "payable": false,
      "stateMutability": "view",
      "type": "function"
    },
    {
      "constant": false,
      "inputs": [
        {
          "name": "_name",
          "type": "string"
        },
        {
          "name": "_licenseFees",
          "type": "uint256[]"
        },
        {
          "name": "_licenseValidateTimes",
          "type": "uint256[]"
        }
      ],
      "name": "createApp",
      "outputs": [],
      "payable": true,
      "stateMutability": "payable",
      "type": "function"
    },
    {
      "constant": true,
      "inputs": [
        {
          "name": "_appId",
          "type": "uint256"
        }
      ],
      "name": "getAppCustomerList",
      "outputs": [
        {
          "name": "",
          "type": "address[]"
        },
        {
          "name": "",
          "type": "uint256[]"
        },
        {
          "name": "",
          "type": "uint256[]"
        }
      ],
      "payable": false,
      "stateMutability": "view",
      "type": "function"
    },
    {
      "constant": true,
      "inputs": [],
      "name": "getAllApps",
      "outputs": [
        {
          "name": "",
          "type": "uint256[]"
        }
      ],
      "payable": false,
      "stateMutability": "view",
      "type": "function"
    },
    {
      "constant": true,
      "inputs": [
        {
          "name": "",
          "type": "uint256"
        }
      ],
      "name": "appToOwner",
      "outputs": [
        {
          "name": "",
          "type": "address"
        }
      ],
      "payable": false,
      "stateMutability": "view",
      "type": "function"
    },
    {
      "constant": true,
      "inputs": [
        {
          "name": "contractName",
          "type": "string"
        },
        {
          "name": "migrationId",
          "type": "string"
        }
      ],
      "name": "isMigrated",
      "outputs": [
        {
          "name": "",
          "type": "bool"
        }
      ],
      "payable": false,
      "stateMutability": "view",
      "type": "function"
    },
    {
      "constant": false,
      "inputs": [
        {
          "name": "_sender",
          "type": "address"
        }
      ],
      "name": "initialize",
      "outputs": [],
      "payable": false,
      "stateMutability": "nonpayable",
      "type": "function"
    },
    {
      "constant": true,
      "inputs": [],
      "name": "getYourApps",
      "outputs": [
        {
          "name": "",
          "type": "uint256[]"
        }
      ],
      "payable": false,
      "stateMutability": "view",
      "type": "function"
    },
    {
      "constant": false,
      "inputs": [
        {
          "name": "_sender",
          "type": "address"
        },
        {
          "name": "_appFee",
          "type": "uint256"
        }
      ],
      "name": "initialize",
      "outputs": [],
      "payable": false,
      "stateMutability": "nonpayable",
      "type": "function"
    },
    {
      "constant": true,
      "inputs": [
        {
          "name": "_appId",
          "type": "uint256"
        }
      ],
      "name": "getAppBrief",
      "outputs": [
        {
          "name": "",
          "type": "string"
        },
        {
          "name": "",
          "type": "uint256"
        },
        {
          "name": "",
          "type": "uint256"
        }
      ],
      "payable": false,
      "stateMutability": "view",
      "type": "function"
    },
    {
      "constant": false,
      "inputs": [
        {
          "name": "_name",
          "type": "string"
        }
      ],
      "name": "createFreeApp",
      "outputs": [],
      "payable": true,
      "stateMutability": "payable",
      "type": "function"
    },
    {
      "constant": false,
      "inputs": [
        {
          "name": "newOwner",
          "type": "address"
        }
      ],
      "name": "transferOwnership",
      "outputs": [],
      "payable": false,
      "stateMutability": "nonpayable",
      "type": "function"
    },
    {
      "payable": true,
      "stateMutability": "payable",
      "type": "fallback"
    },
    {
      "anonymous": false,
      "inputs": [
        {
          "indexed": false,
          "name": "_applyTime",
          "type": "uint256"
        },
        {
          "indexed": true,
          "name": "_applior",
          "type": "address"
        },
        {
          "indexed": true,
          "name": "_appId",
          "type": "uint256"
        },
        {
          "indexed": true,
          "name": "_licenseId",
          "type": "uint256"
        },
        {
          "indexed": false,
          "name": "_licenseFee",
          "type": "uint256"
        },
        {
          "indexed": false,
          "name": "_licenseValidateTime",
          "type": "uint256"
        },
        {
          "indexed": false,
          "name": "_LicenseStartTime",
          "type": "uint256"
        }
      ],
      "name": "NewCustomer",
      "type": "event"
    },
    {
      "anonymous": false,
      "inputs": [
        {
          "indexed": false,
          "name": "_updateTime",
          "type": "uint256"
        },
        {
          "indexed": true,
          "name": "_applior",
          "type": "address"
        },
        {
          "indexed": true,
          "name": "_appId",
          "type": "uint256"
        },
        {
          "indexed": false,
          "name": "_oldLicenseId",
          "type": "uint256"
        },
        {
          "indexed": false,
          "name": "_oldLicenseStartTime",
          "type": "uint256"
        },
        {
          "indexed": true,
          "name": "_newLicenseId",
          "type": "uint256"
        },
        {
          "indexed": false,
          "name": "_newLicenseFee",
          "type": "uint256"
        },
        {
          "indexed": false,
          "name": "_newLicenseValideTime",
          "type": "uint256"
        },
        {
          "indexed": false,
          "name": "_newLicenseStartTime",
          "type": "uint256"
        }
      ],
      "name": "UpdateCustomer",
      "type": "event"
    },
    {
      "anonymous": false,
      "inputs": [
        {
          "indexed": false,
          "name": "_creationTime",
          "type": "uint256"
        },
        {
          "indexed": false,
          "name": "_creator",
          "type": "address"
        },
        {
          "indexed": true,
          "name": "_appId",
          "type": "uint256"
        },
        {
          "indexed": false,
          "name": "_appName",
          "type": "string"
        },
        {
          "indexed": false,
          "name": "_licenseFees",
          "type": "uint256[]"
        },
        {
          "indexed": false,
          "name": "_licenseValidateTimes",
          "type": "uint256[]"
        }
      ],
      "name": "NewApp",
      "type": "event"
    },
    {
      "anonymous": false,
      "inputs": [
        {
          "indexed": false,
          "name": "_updateTime",
          "type": "uint256"
        },
        {
          "indexed": false,
          "name": "_appOwner",
          "type": "address"
        },
        {
          "indexed": true,
          "name": "_appId",
          "type": "uint256"
        },
        {
          "indexed": false,
          "name": "_licenseIds",
          "type": "uint256[]"
        },
        {
          "indexed": false,
          "name": "_licenseOfflines",
          "type": "bool[]"
        }
      ],
      "name": "UpdateAppLicenses",
      "type": "event"
    },
    {
      "anonymous": false,
      "inputs": [
        {
          "indexed": false,
          "name": "_updateTime",
          "type": "uint256"
        },
        {
          "indexed": false,
          "name": "_appOwner",
          "type": "address"
        },
        {
          "indexed": false,
          "name": "_preFee",
          "type": "uint256"
        },
        {
          "indexed": false,
          "name": "_newFee",
          "type": "uint256"
        }
      ],
      "name": "UpdateGlobalAppCreationFee",
      "type": "event"
    },
    {
      "anonymous": false,
      "inputs": [],
      "name": "Pause",
      "type": "event"
    },
    {
      "anonymous": false,
      "inputs": [],
      "name": "Unpause",
      "type": "event"
    },
    {
      "anonymous": false,
      "inputs": [
        {
          "indexed": true,
          "name": "previousOwner",
          "type": "address"
        },
        {
          "indexed": true,
          "name": "newOwner",
          "type": "address"
        }
      ],
      "name": "OwnershipTransferred",
      "type": "event"
    },
    {
      "anonymous": false,
      "inputs": [
        {
          "indexed": false,
          "name": "contractName",
          "type": "string"
        },
        {
          "indexed": false,
          "name": "migrationId",
          "type": "string"
        }
      ],
      "name": "Migrated",
      "type": "event"
    },
    {
      "constant": true,
      "inputs": [
        {
          "name": "_appId",
          "type": "uint256"
        }
      ],
      "name": "aCustomer",
      "outputs": [
        {
          "name": "isCustomer",
          "type": "bool"
        },
        {
          "name": "customerId",
          "type": "uint256"
        }
      ],
      "payable": false,
      "stateMutability": "view",
      "type": "function"
    },
    {
      "constant": false,
      "inputs": [
        {
          "name": "_appId",
          "type": "uint256"
        },
        {
          "name": "_licenseId",
          "type": "uint256"
        }
      ],
      "name": "applyLicense",
      "outputs": [],
      "payable": true,
      "stateMutability": "payable",
      "type": "function"
    },
    {
      "constant": true,
      "inputs": [
        {
          "name": "_appId",
          "type": "uint256"
        }
      ],
      "name": "getLicenseInfo",
      "outputs": [
        {
          "name": "isCustomer",
          "type": "bool"
        },
        {
          "name": "licenseId",
          "type": "uint256"
        },
        {
          "name": "licenseValidateTime",
          "type": "uint256"
        },
        {
          "name": "licenseStartTime",
          "type": "uint256"
        },
        {
          "name": "licenseValidate",
          "type": "bool"
        }
      ],
      "payable": false,
      "stateMutability": "view",
      "type": "function"
    },
    {
      "constant": false,
      "inputs": [],
      "name": "claim",
      "outputs": [],
      "payable": false,
      "stateMutability": "nonpayable",
      "type": "function"
    }
  ],
  "bytecode": "0x60806040526000600160146101000a81548160ff02191690831515021790555034801561002b57600080fd5b50612f518061003b6000396000f300608060405260043610610133576000357c0100000000000000000000000000000000000000000000000000000000900463ffffffff168063200b00a4146101355780633f4ba83a146101925780634e71d92d146101a9578063598528c2146101c05780635c975abb146102d25780636ca848121461030157806370160fc51461034d5780637ea5482a146103785780638456cb59146103b95780638da5cb5b146103d05780639d22b68814610427578063a2a8c2d014610485578063a47fceee14610597578063b4394aa6146105c1578063b78680861461062d578063c0bac1a81461069a578063c4d66de814610761578063cb7986f9146107a4578063cd6dc68714610810578063cea40aa81461085d578063e4a8437914610911578063f2fde38b1461093f578063f3c2cf6514610982575b005b34801561014157600080fd5b50610190600480360381019080803590602001909291908035906020019082018035906020019190919293919293908035906020019082018035906020019190919293919293905050506109e7565b005b34801561019e57600080fd5b506101a7610c6b565b005b3480156101b557600080fd5b506101be610d2b565b005b3480156101cc57600080fd5b506101eb60048036038101908080359060200190929190505050610da0565b60405180806020018060200180602001848103845287818151815260200191508051906020019060200280838360005b8381101561023657808201518184015260208101905061021b565b50505050905001848103835286818151815260200191508051906020019060200280838360005b8381101561027857808201518184015260208101905061025d565b50505050905001848103825285818151815260200191508051906020019060200280838360005b838110156102ba57808201518184015260208101905061029f565b50505050905001965050505050505060405180910390f35b3480156102de57600080fd5b506102e7610f38565b604051808215151515815260200191505060405180910390f35b34801561030d57600080fd5b5061032c60048036038101908080359060200190929190505050610f4b565b60405180831515151581526020018281526020019250505060405180910390f35b34801561035957600080fd5b50610362611044565b6040518082815260200191505060405180910390f35b34801561038457600080fd5b506103a36004803603810190808035906020019092919050505061104a565b6040518082815260200191505060405180910390f35b3480156103c557600080fd5b506103ce61114e565b005b3480156103dc57600080fd5b506103e561120e565b604051808273ffffffffffffffffffffffffffffffffffffffff1673ffffffffffffffffffffffffffffffffffffffff16815260200191505060405180910390f35b610483600480360381019080803590602001908201803590602001919091929391929390803590602001908201803590602001919091929391929390803590602001908201803590602001919091929391929390505050611234565b005b34801561049157600080fd5b506104b0600480360381019080803590602001909291905050506113fc565b60405180806020018060200180602001848103845287818151815260200191508051906020019060200280838360005b838110156104fb5780820151818401526020810190506104e0565b50505050905001848103835286818151815260200191508051906020019060200280838360005b8381101561053d578082015181840152602081019050610522565b50505050905001848103825285818151815260200191508051906020019060200280838360005b8381101561057f578082015181840152602081019050610564565b50505050905001965050505050505060405180910390f35b6105bf600480360381019080803590602001909291908035906020019092919050505061163e565b005b3480156105cd57600080fd5b506105d6611a34565b6040518080602001828103825283818151815260200191508051906020019060200280838360005b838110156106195780820151818401526020810190506105fe565b505050509050019250505060405180910390f35b34801561063957600080fd5b5061065860048036038101908080359060200190929190505050611b1e565b604051808273ffffffffffffffffffffffffffffffffffffffff1673ffffffffffffffffffffffffffffffffffffffff16815260200191505060405180910390f35b3480156106a657600080fd5b50610747600480360381019080803590602001908201803590602001908080601f0160208091040260200160405190810160405280939291908181526020018383808284378201915050505050509192919290803590602001908201803590602001908080601f0160208091040260200160405190810160405280939291908181526020018383808284378201915050505050509192919290505050611b51565b604051808215151515815260200191505060405180910390f35b34801561076d57600080fd5b506107a2600480360381019080803573ffffffffffffffffffffffffffffffffffffffff169060200190929190505050611c3c565b005b3480156107b057600080fd5b506107b9611ec2565b6040518080602001828103825283818151815260200191508051906020019060200280838360005b838110156107fc5780820151818401526020810190506107e1565b505050509050019250505060405180910390f35b34801561081c57600080fd5b5061085b600480360381019080803573ffffffffffffffffffffffffffffffffffffffff1690602001909291908035906020019092919050505061200e565b005b34801561086957600080fd5b506108886004803603810190808035906020019092919050505061229c565b6040518080602001848152602001838152602001828103825285818151815260200191508051906020019080838360005b838110156108d45780820151818401526020810190506108b9565b50505050905090810190601f1680156109015780820380516001836020036101000a031916815260200191505b5094505050505060405180910390f35b61093d60048036038101908080359060200190820180359060200191909192939192939050505061237a565b005b34801561094b57600080fd5b50610980600480360381019080803573ffffffffffffffffffffffffffffffffffffffff169060200190929190505050612578565b005b34801561098e57600080fd5b506109ad600480360381019080803590602001909291905050506126d0565b6040518086151515158152602001858152602001848152602001838152602001821515151581526020019550505050505060405180910390f35b600080600080883373ffffffffffffffffffffffffffffffffffffffff166004600083815260200190815260200160002060009054906101000a900473ffffffffffffffffffffffffffffffffffffffff1673ffffffffffffffffffffffffffffffffffffffff16141515610a5b57600080fd5b600160149054906101000a900460ff16151515610a7757600080fd5b60008a10158015610a8c57506003805490508a105b1515610a9757600080fd5b8686905089899050141515610aab57600080fd5b60038a815481101515610aba57fe5b90600052602060002090600502019450600093505b88889050841015610ba9578888858181101515610ae857fe5b90506020020135925060008310158015610b055750846001015483105b1515610b1057600080fd5b84600401600084815260200190815260200160002091508686858181101515610b3557fe5b90506020020135151515158260020160009054906101000a900460ff161515141515610b8e578686858181101515610b6957fe5b9050602002013515158260020160006101000a81548160ff0219169083151502179055505b610ba26001856127a090919063ffffffff16565b9350610acf565b897f9915228889c3fc580aaf9ef33f0526ed631d30e98de792b8be111266ac1c257142338c8c8c8c604051808781526020018673ffffffffffffffffffffffffffffffffffffffff1673ffffffffffffffffffffffffffffffffffffffff168152602001806020018060200183810383528787828181526020019250602002808284378201915050838103825285858281815260200192506020028082843782019150509850505050505050505060405180910390a250505050505050505050565b600160009054906101000a900473ffffffffffffffffffffffffffffffffffffffff1673ffffffffffffffffffffffffffffffffffffffff163373ffffffffffffffffffffffffffffffffffffffff16141515610cc757600080fd5b600160149054906101000a900460ff161515610ce257600080fd5b6000600160146101000a81548160ff0219169083151502179055507f7805862f689e2f13df9f062ff482ad3ad112aca9e0847911ed832e158c525b3360405160405180910390a1565b600160009054906101000a900473ffffffffffffffffffffffffffffffffffffffff1673ffffffffffffffffffffffffffffffffffffffff163373ffffffffffffffffffffffffffffffffffffffff16141515610d8757600080fd5b3373ffffffffffffffffffffffffffffffffffffffff16ff5b6060806060600080606080606060008060038b815481101515610dbf57fe5b906000526020600020906005020196508660010154955085604051908082528060200260200182016040528015610e055781602001602082028038833980820191505090505b50945085604051908082528060200260200182016040528015610e375781602001602082028038833980820191505090505b50935085604051908082528060200260200182016040528015610e695781602001602082028038833980820191505090505b509250600091505b85821015610f2157866004016000838152602001908152602001600020905080600001548583815181101515610ea357fe5b906020019060200201818152505080600101548483815181101515610ec457fe5b90602001906020020181815250508060020160009054906101000a900460ff168383815181101515610ef257fe5b9060200190602002019015159081151581525050610f1a6001836127a090919063ffffffff16565b9150610e71565b848484995099509950505050505050509193909250565b600160149054906101000a900460ff1681565b6000806000806000808610158015610f67575060038054905086105b1515610f7257600080fd5b600386815481101515610f8157fe5b9060005260206000209060050201925060009450600091505b826002015482101561103c5782600301600083815260200190815260200160002090503373ffffffffffffffffffffffffffffffffffffffff168160000160009054906101000a900473ffffffffffffffffffffffffffffffffffffffff1673ffffffffffffffffffffffffffffffffffffffff161415611021576001945081935061103c565b6110356001836127a090919063ffffffff16565b9150610f9a565b505050915091565b60025481565b600080600160009054906101000a900473ffffffffffffffffffffffffffffffffffffffff1673ffffffffffffffffffffffffffffffffffffffff163373ffffffffffffffffffffffffffffffffffffffff161415156110a957600080fd5b60025483141515156110ba57600080fd5b6002549050826002819055507f88baf3d55c73de3daf241b46e77dc4fbdeb5e9949c4ddff3761406b954134de0423383600254604051808581526020018473ffffffffffffffffffffffffffffffffffffffff1673ffffffffffffffffffffffffffffffffffffffff16815260200183815260200182815260200194505050505060405180910390a1600254915050919050565b600160009054906101000a900473ffffffffffffffffffffffffffffffffffffffff1673ffffffffffffffffffffffffffffffffffffffff163373ffffffffffffffffffffffffffffffffffffffff161415156111aa57600080fd5b600160149054906101000a900460ff161515156111c657600080fd5b60018060146101000a81548160ff0219169083151502179055507f6985a02210a168e66602d3235cb6db0e70f92b3ba4d376a33c0f3d9434bff62560405160405180910390a1565b600160009054906101000a900473ffffffffffffffffffffffffffffffffffffffff1681565b600160149054906101000a900460ff1615151561125057600080fd5b600254341015151561126157600080fd5b818190508484905014151561127557600080fd5b600160009054906101000a900473ffffffffffffffffffffffffffffffffffffffff1673ffffffffffffffffffffffffffffffffffffffff166108fc6002549081150290604051600060405180830381858888f193505050501580156112df573d6000803e3d6000fd5b5060006112f7600254346127bc90919063ffffffff16565b1115611359573373ffffffffffffffffffffffffffffffffffffffff166108fc61132c600254346127bc90919063ffffffff16565b9081150290604051600060405180830381858888f19350505050158015611357573d6000803e3d6000fd5b505b6113f486868080601f0160208091040260200160405190810160405280939291908181526020018383808284378201915050505050508585808060200260200160405190810160405280939291908181526020018383602002808284378201915050505050508484808060200260200160405190810160405280939291908181526020018383602002808284378201915050505050506127d5565b505050505050565b606080606060008060608060606000808a3373ffffffffffffffffffffffffffffffffffffffff166004600083815260200190815260200160002060009054906101000a900473ffffffffffffffffffffffffffffffffffffffff1673ffffffffffffffffffffffffffffffffffffffff1614151561147a57600080fd5b60038c81548110151561148957fe5b9060005260206000209060050201975087600201549650866040519080825280602002602001820160405280156114cf5781602001602082028038833980820191505090505b509550866040519080825280602002602001820160405280156115015781602001602082028038833980820191505090505b509450866040519080825280602002602001820160405280156115335781602001602082028038833980820191505090505b509350600092505b868310156116265787600301600084815260200190815260200160002091508160000160009054906101000a900473ffffffffffffffffffffffffffffffffffffffff16868481518110151561158d57fe5b9060200190602002019073ffffffffffffffffffffffffffffffffffffffff16908173ffffffffffffffffffffffffffffffffffffffff1681525050816001015485848151811015156115dc57fe5b9060200190602002018181525050816002015484848151811015156115fd57fe5b906020019060200201818152505061161f6001846127a090919063ffffffff16565b925061153b565b8585859a509a509a5050505050505050509193909250565b600080600080600080600080600160149054906101000a900460ff1615151561166657600080fd5b60008a1015801561167b57506003805490508a105b151561168657600080fd5b60038a81548110151561169557fe5b90600052602060002090600502019750600089101580156116b95750876001015489105b15156116c457600080fd5b8760040160008a81526020019081526020016000209650600015158760020160009054906101000a900460ff1615151415156116ff57600080fd5b8660000154341015151561171257600080fd5b600460008b815260200190815260200160002060009054906101000a900473ffffffffffffffffffffffffffffffffffffffff1673ffffffffffffffffffffffffffffffffffffffff166108fc88600001549081150290604051600060405180830381858888f1935050505015801561178f573d6000803e3d6000fd5b5060006117a98860000154346127bc90919063ffffffff16565b111561180d573373ffffffffffffffffffffffffffffffffffffffff166108fc6117e08960000154346127bc90919063ffffffff16565b9081150290604051600060405180830381858888f1935050505015801561180b573d6000803e3d6000fd5b505b6118168a610f4b565b80965081975050506001151586151514156118eb5787600301600086815260200190815260200160002093508360010154925083600201549150888460010181905550428460020181905550888a3373ffffffffffffffffffffffffffffffffffffffff167f58e8df1508156a02742ce0ddbe7f07efea0a069e9f3af45eacdd4462b6e80ce84287878d600001548e600101548c6002015460405180878152602001868152602001858152602001848152602001838152602001828152602001965050505050505060405180910390a4611a28565b4290506060604051908101604052803373ffffffffffffffffffffffffffffffffffffffff1681526020018a8152602001828152508860030160008a60020154815260200190815260200160002060008201518160000160006101000a81548173ffffffffffffffffffffffffffffffffffffffff021916908373ffffffffffffffffffffffffffffffffffffffff16021790555060208201518160010155604082015181600201559050506119af600189600201546127a090919063ffffffff16565b8860020181905550888a3373ffffffffffffffffffffffffffffffffffffffff167f97b9b1d05a99593c6513e3ba5138709b2699bdca0bad47048d558dd88058cddb428b600001548c60010154876040518085815260200184815260200183815260200182815260200194505050505060405180910390a45b50505050505050505050565b6060806000600160009054906101000a900473ffffffffffffffffffffffffffffffffffffffff1673ffffffffffffffffffffffffffffffffffffffff163373ffffffffffffffffffffffffffffffffffffffff16141515611a9557600080fd5b600380549050604051908082528060200260200182016040528015611ac95781602001602082028038833980820191505090505b509150600090505b600380549050811015611b1657808282815181101515611aed57fe5b9060200190602002018181525050611b0f6001826127a090919063ffffffff16565b9050611ad1565b819250505090565b60046020528060005260406000206000915054906101000a900473ffffffffffffffffffffffffffffffffffffffff1681565b600080836040518082805190602001908083835b602083101515611b8a5780518252602082019150602081019050602083039250611b65565b6001836020036101000a0380198251168184511680821785525050505050509050019150509081526020016040518091039020826040518082805190602001908083835b602083101515611bf35780518252602082019150602081019050602083039250611bce565b6001836020036101000a038019825116818451168082178552505050505050905001915050908152602001604051809103902060009054906101000a900460ff16905092915050565b6040805190810160405280600881526020017f5061757361626c650000000000000000000000000000000000000000000000008152506040805190810160405280600581526020017f312e392e30000000000000000000000000000000000000000000000000000000815250611cb28282611b51565b151515611cbe57600080fd5b611cc783612bc2565b7fdd117a11c22118c9dee4b5a67ce578bc44529dce21ee0ccc439588fbb9fb4ea38282604051808060200180602001838103835285818151815260200191508051906020019080838360005b83811015611d2e578082015181840152602081019050611d13565b50505050905090810190601f168015611d5b5780820380516001836020036101000a031916815260200191505b50838103825284818151815260200191508051906020019080838360005b83811015611d94578082015181840152602081019050611d79565b50505050905090810190601f168015611dc15780820380516001836020036101000a031916815260200191505b5094505050505060405180910390a160016000836040518082805190602001908083835b602083101515611e0a5780518252602082019150602081019050602083039250611de5565b6001836020036101000a0380198251168184511680821785525050505050509050019150509081526020016040518091039020826040518082805190602001908083835b602083101515611e735780518252602082019150602081019050602083039250611e4e565b6001836020036101000a038019825116818451168082178552505050505050905001915050908152602001604051809103902060006101000a81548160ff021916908315150217905550505050565b606080600080600560003373ffffffffffffffffffffffffffffffffffffffff1673ffffffffffffffffffffffffffffffffffffffff16815260200190815260200160002054604051908082528060200260200182016040528015611f365781602001602082028038833980820191505090505b50925060009150600090505b600380549050811015612005573373ffffffffffffffffffffffffffffffffffffffff166004600083815260200190815260200160002060009054906101000a900473ffffffffffffffffffffffffffffffffffffffff1673ffffffffffffffffffffffffffffffffffffffff161415611fea57808383815181101515611fc557fe5b9060200190602002018181525050611fe76001836127a090919063ffffffff16565b91505b611ffe6001826127a090919063ffffffff16565b9050611f42565b82935050505090565b6040805190810160405280600a81526020017f417070466163746f7279000000000000000000000000000000000000000000008152506040805190810160405280600181526020017f30000000000000000000000000000000000000000000000000000000000000008152506120848282611b51565b15151561209057600080fd5b61209984611c3c565b826002819055507fdd117a11c22118c9dee4b5a67ce578bc44529dce21ee0ccc439588fbb9fb4ea38282604051808060200180602001838103835285818151815260200191508051906020019080838360005b838110156121075780820151818401526020810190506120ec565b50505050905090810190601f1680156121345780820380516001836020036101000a031916815260200191505b50838103825284818151815260200191508051906020019080838360005b8381101561216d578082015181840152602081019050612152565b50505050905090810190601f16801561219a5780820380516001836020036101000a031916815260200191505b5094505050505060405180910390a160016000836040518082805190602001908083835b6020831015156121e357805182526020820191506020810190506020830392506121be565b6001836020036101000a0380198251168184511680821785525050505050509050019150509081526020016040518091039020826040518082805190602001908083835b60208310151561224c5780518252602082019150602081019050602083039250612227565b6001836020036101000a038019825116818451168082178552505050505050905001915050908152602001604051809103902060006101000a81548160ff02191690831515021790555050505050565b606060008060006003858154811015156122b257fe5b906000526020600020906005020190508060000181600101548260020154828054600181600116156101000203166002900480601f0160208091040260200160405190810160405280929190818152602001828054600181600116156101000203166002900480156123655780601f1061233a57610100808354040283529160200191612365565b820191906000526020600020905b81548152906001019060200180831161234857829003601f168201915b50505050509250935093509350509193909250565b606080600160149054906101000a900460ff1615151561239957600080fd5b60025434101515156123aa57600080fd5b600160009054906101000a900473ffffffffffffffffffffffffffffffffffffffff1673ffffffffffffffffffffffffffffffffffffffff166108fc6002549081150290604051600060405180830381858888f19350505050158015612414573d6000803e3d6000fd5b50600061242c600254346127bc90919063ffffffff16565b111561248e573373ffffffffffffffffffffffffffffffffffffffff166108fc612461600254346127bc90919063ffffffff16565b9081150290604051600060405180830381858888f1935050505015801561248c573d6000803e3d6000fd5b505b60016040519080825280602002602001820160405280156124be5781602001602082028038833980820191505090505b50915060008260008151811015156124d257fe5b906020019060200201818152505060016040519080825280602002602001820160405280156125105781602001602082028038833980820191505090505b50905063bbf81e0081600081518110151561252757fe5b906020019060200201818152505061257284848080601f01602080910402602001604051908101604052809392919081815260200183838082843782019150505050505083836127d5565b50505050565b600160009054906101000a900473ffffffffffffffffffffffffffffffffffffffff1673ffffffffffffffffffffffffffffffffffffffff163373ffffffffffffffffffffffffffffffffffffffff161415156125d457600080fd5b600073ffffffffffffffffffffffffffffffffffffffff168173ffffffffffffffffffffffffffffffffffffffff161415151561261057600080fd5b8073ffffffffffffffffffffffffffffffffffffffff16600160009054906101000a900473ffffffffffffffffffffffffffffffffffffffff1673ffffffffffffffffffffffffffffffffffffffff167f8be0079c531659141344cd1fd0a4f28419497f9722a3daafe3b4186f6b6457e060405160405180910390a380600160006101000a81548173ffffffffffffffffffffffffffffffffffffffff021916908373ffffffffffffffffffffffffffffffffffffffff16021790555050565b60008060008060008060008060006126e78a610f4b565b809550819a5050506001151589151514156127825760038a81548110151561270b57fe5b90600052602060002090600502019250826003016000858152602001908152602001600020915081600101549750826004016000898152602001908152602001600020905080600101549650816002015495504261277a836002015483600101546127a090919063ffffffff16565b119450612793565b600097506000965060009550600094505b5050505091939590929450565b600081830190508281101515156127b357fe5b80905092915050565b60008282111515156127ca57fe5b818303905092915050565b60008061286960016003606060405190810160405280898152602001885181526020016000815250908060018154018082558091505090600182039060005260206000209060050201600090919290919091506000820151816000019080519060200190612844929190612e80565b50602082015181600101556040820151816002015550506127bc90919063ffffffff16565b9150336004600084815260200190815260200160002060006101000a81548173ffffffffffffffffffffffffffffffffffffffff021916908373ffffffffffffffffffffffffffffffffffffffff1602179055506129106001600560003373ffffffffffffffffffffffffffffffffffffffff1673ffffffffffffffffffffffffffffffffffffffff168152602001908152602001600020546127a090919063ffffffff16565b600560003373ffffffffffffffffffffffffffffffffffffffff1673ffffffffffffffffffffffffffffffffffffffff16815260200190815260200160002081905550600090505b60038281548110151561296757fe5b906000526020600020906005020160010154811015612a5057606060405190810160405280858381518110151561299a57fe5b90602001906020020151815260200184838151811015156129b757fe5b906020019060200201518152602001600015158152506003838154811015156129dc57fe5b90600052602060002090600502016004016000838152602001908152602001600020600082015181600001556020820151816001015560408201518160020160006101000a81548160ff021916908315150217905550905050612a496001826127a090919063ffffffff16565b9050612958565b817f631da1651c04ffead99053a9d1c3424a67b2bc55b5c80c0ed80616316495623b4233888888604051808681526020018573ffffffffffffffffffffffffffffffffffffffff1673ffffffffffffffffffffffffffffffffffffffff168152602001806020018060200180602001848103845287818151815260200191508051906020019080838360005b83811015612af7578082015181840152602081019050612adc565b50505050905090810190601f168015612b245780820380516001836020036101000a031916815260200191505b50848103835286818151815260200191508051906020019060200280838360005b83811015612b60578082015181840152602081019050612b45565b50505050905001848103825285818151815260200191508051906020019060200280838360005b83811015612ba2578082015181840152602081019050612b87565b505050509050019850505050505050505060405180910390a25050505050565b6040805190810160405280600781526020017f4f776e61626c65000000000000000000000000000000000000000000000000008152506040805190810160405280600581526020017f312e392e30000000000000000000000000000000000000000000000000000000815250612c388282611b51565b151515612c4457600080fd5b82600160006101000a81548173ffffffffffffffffffffffffffffffffffffffff021916908373ffffffffffffffffffffffffffffffffffffffff1602179055507fdd117a11c22118c9dee4b5a67ce578bc44529dce21ee0ccc439588fbb9fb4ea38282604051808060200180602001838103835285818151815260200191508051906020019080838360005b83811015612cec578082015181840152602081019050612cd1565b50505050905090810190601f168015612d195780820380516001836020036101000a031916815260200191505b50838103825284818151815260200191508051906020019080838360005b83811015612d52578082015181840152602081019050612d37565b50505050905090810190601f168015612d7f5780820380516001836020036101000a031916815260200191505b5094505050505060405180910390a160016000836040518082805190602001908083835b602083101515612dc85780518252602082019150602081019050602083039250612da3565b6001836020036101000a0380198251168184511680821785525050505050509050019150509081526020016040518091039020826040518082805190602001908083835b602083101515612e315780518252602082019150602081019050602083039250612e0c565b6001836020036101000a038019825116818451168082178552505050505050905001915050908152602001604051809103902060006101000a81548160ff021916908315150217905550505050565b828054600181600116156101000203166002900490600052602060002090601f016020900481019282601f10612ec157805160ff1916838001178555612eef565b82800160010185558215612eef579182015b82811115612eee578251825591602001919060010190612ed3565b5b509050612efc9190612f00565b5090565b612f2291905b80821115612f1e576000816000905550600101612f06565b5090565b905600a165627a7a723058207e54ac8797ab5ddf5d1b644cad48503365b4dc07f50d6c545aa4e3ae91a204880029",
  "source": "pragma solidity ^0.4.21;\r\nimport \"./AppFactory.sol\";\r\nimport \"openzeppelin-zos/contracts/math/SafeMath.sol\";\r\n\r\ncontract License is AppFactory {\r\n  using SafeMath for uint256;\r\n\r\n  event NewCustomer(uint256 _applyTime, address indexed _applior, uint256 indexed _appId,  uint256 indexed _licenseId, uint256 _licenseFee, uint256 _licenseValidateTime, uint256 _LicenseStartTime);\r\n  event UpdateCustomer(uint256 _updateTime,address indexed _applior,  uint256 indexed _appId, uint256 _oldLicenseId, uint256 _oldLicenseStartTime, uint256 indexed _newLicenseId,  uint256 _newLicenseFee, uint256 _newLicenseValideTime, uint256 _newLicenseStartTime);\r\n\r\n  /* function initialize(address _sender, uint256 _appFee) isInitializer(\"License\", \"0\") public {\r\n    AppFactory.initialize(_sender,_appFee);\r\n  } */\r\n  function aCustomer(uint256 _appId) public view returns(bool isCustomer, uint256 customerId){\r\n    require(_appId >= 0 && _appId < apps.length);\r\n    App storage app = apps[_appId];\r\n    isCustomer = false;\r\n    for (uint256 i = 0; i < app.customersNum; i=i.add(1)) {\r\n      Customer storage customer = app.toCustomer[i];\r\n      if(customer.addr == msg.sender){\r\n        isCustomer = true;\r\n        customerId = i;\r\n        break;\r\n      }\r\n    }\r\n  }\r\n\r\n  function applyLicense (uint256 _appId,uint256 _licenseId) external payable whenNotPaused {\r\n    require(_appId >= 0 && _appId < apps.length);\r\n    App storage app = apps[_appId];\r\n    require(_licenseId >= 0 && _licenseId < app.licenseTypeNum);\r\n    LicenseType storage license = app.toLicenseType[_licenseId];\r\n\r\n    // could not apply license already offlineAppLicense\r\n    require(license.offline==false);\r\n    require(msg.value >= license.fee);\r\n    appToOwner[_appId].transfer(license.fee);\r\n    if(msg.value.sub(license.fee) > 0){\r\n      msg.sender.transfer(msg.value.sub(license.fee));\r\n    }\r\n    bool isCustomer;\r\n    uint256 customerId;\r\n    (isCustomer, customerId) = aCustomer(_appId);\r\n    if(isCustomer == true){\r\n      Customer storage customer = app.toCustomer[customerId];\r\n      uint256 oldLicenseId = customer.licenseId;\r\n      uint256 oldLicenseStartTime = customer.licenseStartTime;\r\n      customer.licenseId = _licenseId;\r\n      customer.licenseStartTime = now;\r\n      /* LicenseType storage oldLicense = app.toLicenseType[oldLicenseId]; */\r\n      emit UpdateCustomer(now, msg.sender, _appId, oldLicenseId, oldLicenseStartTime, _licenseId, license.fee, license.validateTime, customer.licenseStartTime);\r\n\r\n    }else{\r\n      uint256 licenseStartTime = now;\r\n      app.toCustomer[app.customersNum]= Customer(msg.sender,_licenseId,licenseStartTime);\r\n      app.customersNum = app.customersNum.add(1);\r\n      emit NewCustomer(now, msg.sender, _appId, _licenseId, license.fee, license.validateTime, licenseStartTime);\r\n    }\r\n\r\n  }\r\n\r\n  function getLicenseInfo(uint256 _appId) external view returns(bool isCustomer, uint256 licenseId,   uint256 licenseValidateTime, uint256 licenseStartTime, bool licenseValidate ){\r\n    uint256 customerId;\r\n    (isCustomer, customerId) = aCustomer(_appId);\r\n    if(isCustomer == true){\r\n      App storage app = apps[_appId];\r\n      Customer storage customer = app.toCustomer[customerId];\r\n      licenseId = customer.licenseId;\r\n      LicenseType storage license = app.toLicenseType[licenseId];\r\n      licenseValidateTime = license.validateTime;\r\n      licenseStartTime = customer.licenseStartTime;\r\n      licenseValidate = license.validateTime.add(customer.licenseStartTime) > uint256(now) ;\r\n    } else{\r\n      licenseId = 0;\r\n      licenseValidateTime = 0;\r\n      licenseStartTime = 0;\r\n      licenseValidate = false;\r\n    }\r\n\r\n  }\r\n  function () payable public {}\r\n  function claim() external onlyOwner {\r\n      selfdestruct(msg.sender);\r\n  }\r\n}\r\n",
  "sourcePath": "D:\\work\\creative\\smartContract\\licenseContract\\contracts\\License.sol",
  "compiler": {
    "name": "solc",
    "version": "0.4.24+commit.e67f0147.Emscripten.clang"
  },
  "schemaVersion": "2.0.1",
  "updatedAt": "2018-09-13T03:51:05.462Z"
}