{
  "contractName": "LicenseV4",
  "abi": [
    {
      "constant": false,
      "inputs": [],
      "name": "withDraw",
      "outputs": [],
      "payable": false,
      "stateMutability": "nonpayable",
      "type": "function"
    },
    {
      "constant": false,
      "inputs": [
        {
          "name": "_appId",
          "type": "uint256"
        },
        {
          "name": "_licenseIds",
          "type": "uint256[]"
        },
        {
          "name": "_licenseOfflines",
          "type": "bool[]"
        }
      ],
      "name": "setAppLicenseOnlineStates",
      "outputs": [],
      "payable": false,
      "stateMutability": "nonpayable",
      "type": "function"
    },
    {
      "constant": false,
      "inputs": [],
      "name": "unpause",
      "outputs": [],
      "payable": false,
      "stateMutability": "nonpayable",
      "type": "function"
    },
    {
      "constant": true,
      "inputs": [
        {
          "name": "_appId",
          "type": "uint256"
        }
      ],
      "name": "getAppLicenseList",
      "outputs": [
        {
          "name": "",
          "type": "uint256[]"
        },
        {
          "name": "",
          "type": "uint256[]"
        },
        {
          "name": "",
          "type": "bool[]"
        }
      ],
      "payable": false,
      "stateMutability": "view",
      "type": "function"
    },
    {
      "constant": true,
      "inputs": [],
      "name": "paused",
      "outputs": [
        {
          "name": "",
          "type": "bool"
        }
      ],
      "payable": false,
      "stateMutability": "view",
      "type": "function"
    },
    {
      "constant": true,
      "inputs": [
        {
          "name": "_appId",
          "type": "uint256"
        }
      ],
      "name": "aCustomer",
      "outputs": [
        {
          "name": "isCustomer",
          "type": "bool"
        },
        {
          "name": "customerId",
          "type": "uint256"
        }
      ],
      "payable": false,
      "stateMutability": "view",
      "type": "function"
    },
    {
      "constant": true,
      "inputs": [],
      "name": "appFee",
      "outputs": [
        {
          "name": "",
          "type": "uint256"
        }
      ],
      "payable": false,
      "stateMutability": "view",
      "type": "function"
    },
    {
      "constant": false,
      "inputs": [
        {
          "name": "_newFee",
          "type": "uint256"
        }
      ],
      "name": "setAppFee",
      "outputs": [
        {
          "name": "",
          "type": "uint256"
        }
      ],
      "payable": false,
      "stateMutability": "nonpayable",
      "type": "function"
    },
    {
      "constant": false,
      "inputs": [],
      "name": "pause",
      "outputs": [],
      "payable": false,
      "stateMutability": "nonpayable",
      "type": "function"
    },
    {
      "constant": true,
      "inputs": [],
      "name": "owner",
      "outputs": [
        {
          "name": "",
          "type": "address"
        }
      ],
      "payable": false,
      "stateMutability": "view",
      "type": "function"
    },
    {
      "constant": false,
      "inputs": [
        {
          "name": "_name",
          "type": "string"
        },
        {
          "name": "_licenseFees",
          "type": "uint256[]"
        },
        {
          "name": "_licenseValidateTimes",
          "type": "uint256[]"
        }
      ],
      "name": "createApp",
      "outputs": [],
      "payable": true,
      "stateMutability": "payable",
      "type": "function"
    },
    {
      "constant": true,
      "inputs": [
        {
          "name": "_appId",
          "type": "uint256"
        }
      ],
      "name": "getAppCustomerList",
      "outputs": [
        {
          "name": "",
          "type": "address[]"
        },
        {
          "name": "",
          "type": "uint256[]"
        },
        {
          "name": "",
          "type": "uint256[]"
        }
      ],
      "payable": false,
      "stateMutability": "view",
      "type": "function"
    },
    {
      "constant": false,
      "inputs": [
        {
          "name": "_appId",
          "type": "uint256"
        },
        {
          "name": "_licenseId",
          "type": "uint256"
        }
      ],
      "name": "applyLicense",
      "outputs": [],
      "payable": true,
      "stateMutability": "payable",
      "type": "function"
    },
    {
      "constant": true,
      "inputs": [],
      "name": "getAllApps",
      "outputs": [
        {
          "name": "",
          "type": "uint256[]"
        }
      ],
      "payable": false,
      "stateMutability": "view",
      "type": "function"
    },
    {
      "constant": true,
      "inputs": [
        {
          "name": "",
          "type": "uint256"
        }
      ],
      "name": "appToOwner",
      "outputs": [
        {
          "name": "",
          "type": "address"
        }
      ],
      "payable": false,
      "stateMutability": "view",
      "type": "function"
    },
    {
      "constant": true,
      "inputs": [
        {
          "name": "contractName",
          "type": "string"
        },
        {
          "name": "migrationId",
          "type": "string"
        }
      ],
      "name": "isMigrated",
      "outputs": [
        {
          "name": "",
          "type": "bool"
        }
      ],
      "payable": false,
      "stateMutability": "view",
      "type": "function"
    },
    {
      "constant": false,
      "inputs": [
        {
          "name": "_sender",
          "type": "address"
        }
      ],
      "name": "initialize",
      "outputs": [],
      "payable": false,
      "stateMutability": "nonpayable",
      "type": "function"
    },
    {
      "constant": true,
      "inputs": [],
      "name": "getYourApps",
      "outputs": [
        {
          "name": "",
          "type": "uint256[]"
        }
      ],
      "payable": false,
      "stateMutability": "view",
      "type": "function"
    },
    {
      "constant": false,
      "inputs": [
        {
          "name": "_sender",
          "type": "address"
        },
        {
          "name": "_appFee",
          "type": "uint256"
        }
      ],
      "name": "initialize",
      "outputs": [],
      "payable": false,
      "stateMutability": "nonpayable",
      "type": "function"
    },
    {
      "constant": true,
      "inputs": [
        {
          "name": "_appId",
          "type": "uint256"
        }
      ],
      "name": "getAppBrief",
      "outputs": [
        {
          "name": "",
          "type": "string"
        },
        {
          "name": "",
          "type": "uint256"
        },
        {
          "name": "",
          "type": "uint256"
        }
      ],
      "payable": false,
      "stateMutability": "view",
      "type": "function"
    },
    {
      "constant": false,
      "inputs": [
        {
          "name": "_name",
          "type": "string"
        }
      ],
      "name": "createFreeApp",
      "outputs": [],
      "payable": true,
      "stateMutability": "payable",
      "type": "function"
    },
    {
      "constant": false,
      "inputs": [
        {
          "name": "newOwner",
          "type": "address"
        }
      ],
      "name": "transferOwnership",
      "outputs": [],
      "payable": false,
      "stateMutability": "nonpayable",
      "type": "function"
    },
    {
      "constant": true,
      "inputs": [
        {
          "name": "_appId",
          "type": "uint256"
        }
      ],
      "name": "getLicenseInfo",
      "outputs": [
        {
          "name": "isCustomer",
          "type": "bool"
        },
        {
          "name": "licenseId",
          "type": "uint256"
        },
        {
          "name": "licenseValidateTime",
          "type": "uint256"
        },
        {
          "name": "licenseStartTime",
          "type": "uint256"
        },
        {
          "name": "licenseValidate",
          "type": "bool"
        }
      ],
      "payable": false,
      "stateMutability": "view",
      "type": "function"
    },
    {
      "anonymous": false,
      "inputs": [
        {
          "indexed": false,
          "name": "_applyTime",
          "type": "uint256"
        },
        {
          "indexed": true,
          "name": "_applior",
          "type": "address"
        },
        {
          "indexed": true,
          "name": "_appId",
          "type": "uint256"
        },
        {
          "indexed": true,
          "name": "_licenseId",
          "type": "uint256"
        },
        {
          "indexed": false,
          "name": "_licenseFee",
          "type": "uint256"
        },
        {
          "indexed": false,
          "name": "_licenseValidateTime",
          "type": "uint256"
        },
        {
          "indexed": false,
          "name": "_LicenseStartTime",
          "type": "uint256"
        }
      ],
      "name": "NewCustomer",
      "type": "event"
    },
    {
      "anonymous": false,
      "inputs": [
        {
          "indexed": false,
          "name": "_updateTime",
          "type": "uint256"
        },
        {
          "indexed": true,
          "name": "_applior",
          "type": "address"
        },
        {
          "indexed": true,
          "name": "_appId",
          "type": "uint256"
        },
        {
          "indexed": false,
          "name": "_oldLicenseId",
          "type": "uint256"
        },
        {
          "indexed": false,
          "name": "_oldLicenseStartTime",
          "type": "uint256"
        },
        {
          "indexed": true,
          "name": "_newLicenseId",
          "type": "uint256"
        },
        {
          "indexed": false,
          "name": "_newLicenseFee",
          "type": "uint256"
        },
        {
          "indexed": false,
          "name": "_newLicenseValideTime",
          "type": "uint256"
        },
        {
          "indexed": false,
          "name": "_newLicenseStartTime",
          "type": "uint256"
        }
      ],
      "name": "UpdateCustomer",
      "type": "event"
    },
    {
      "anonymous": false,
      "inputs": [
        {
          "indexed": false,
          "name": "_creationTime",
          "type": "uint256"
        },
        {
          "indexed": false,
          "name": "_creator",
          "type": "address"
        },
        {
          "indexed": true,
          "name": "_appId",
          "type": "uint256"
        },
        {
          "indexed": false,
          "name": "_appName",
          "type": "string"
        },
        {
          "indexed": false,
          "name": "_licenseFees",
          "type": "uint256[]"
        },
        {
          "indexed": false,
          "name": "_licenseValidateTimes",
          "type": "uint256[]"
        }
      ],
      "name": "NewApp",
      "type": "event"
    },
    {
      "anonymous": false,
      "inputs": [
        {
          "indexed": false,
          "name": "_updateTime",
          "type": "uint256"
        },
        {
          "indexed": false,
          "name": "_appOwner",
          "type": "address"
        },
        {
          "indexed": true,
          "name": "_appId",
          "type": "uint256"
        },
        {
          "indexed": false,
          "name": "_licenseIds",
          "type": "uint256[]"
        },
        {
          "indexed": false,
          "name": "_licenseOfflines",
          "type": "bool[]"
        }
      ],
      "name": "UpdateAppLicenses",
      "type": "event"
    },
    {
      "anonymous": false,
      "inputs": [
        {
          "indexed": false,
          "name": "_updateTime",
          "type": "uint256"
        },
        {
          "indexed": false,
          "name": "_appOwner",
          "type": "address"
        },
        {
          "indexed": false,
          "name": "_preFee",
          "type": "uint256"
        },
        {
          "indexed": false,
          "name": "_newFee",
          "type": "uint256"
        }
      ],
      "name": "UpdateGlobalAppCreationFee",
      "type": "event"
    },
    {
      "anonymous": false,
      "inputs": [],
      "name": "Pause",
      "type": "event"
    },
    {
      "anonymous": false,
      "inputs": [],
      "name": "Unpause",
      "type": "event"
    },
    {
      "anonymous": false,
      "inputs": [
        {
          "indexed": true,
          "name": "previousOwner",
          "type": "address"
        },
        {
          "indexed": true,
          "name": "newOwner",
          "type": "address"
        }
      ],
      "name": "OwnershipTransferred",
      "type": "event"
    },
    {
      "anonymous": false,
      "inputs": [
        {
          "indexed": false,
          "name": "contractName",
          "type": "string"
        },
        {
          "indexed": false,
          "name": "migrationId",
          "type": "string"
        }
      ],
      "name": "Migrated",
      "type": "event"
    },
    {
      "constant": true,
      "inputs": [
        {
          "name": "_appId",
          "type": "uint256"
        },
        {
          "name": "_address",
          "type": "address"
        }
      ],
      "name": "aCustomerByOwner",
      "outputs": [
        {
          "name": "isCustomer",
          "type": "bool"
        },
        {
          "name": "customerId",
          "type": "uint256"
        }
      ],
      "payable": false,
      "stateMutability": "view",
      "type": "function"
    },
    {
      "constant": false,
      "inputs": [
        {
          "name": "_appId",
          "type": "uint256"
        },
        {
          "name": "_licenseId",
          "type": "uint256"
        },
        {
          "name": "_address",
          "type": "address"
        }
      ],
      "name": "approveLicense",
      "outputs": [],
      "payable": false,
      "stateMutability": "nonpayable",
      "type": "function"
    },
    {
      "constant": false,
      "inputs": [
        {
          "name": "_appId",
          "type": "uint256"
        },
        {
          "name": "_licenseIds",
          "type": "uint256[]"
        },
        {
          "name": "_addresses",
          "type": "address[]"
        }
      ],
      "name": "multiApproveLicense",
      "outputs": [],
      "payable": false,
      "stateMutability": "nonpayable",
      "type": "function"
    }
  ],
  "bytecode": "0x60806040526000600160146101000a81548160ff02191690831515021790555034801561002b57600080fd5b506137048061003b6000396000f300608060405260043610610154576000357c0100000000000000000000000000000000000000000000000000000000900463ffffffff1680630fdb1c1014610159578063200b00a41461017057806322d39689146101cd5780633f4ba83a14610239578063598528c2146102505780635c975abb146103625780635d160c95146103915780636ca84812146103ee57806370160fc51461043a5780637ea5482a146104655780638456cb59146104a657806386a25cdd146104bd5780638da5cb5b146105145780639d22b6881461056b578063a2a8c2d0146105c9578063a47fceee146106db578063b4394aa614610705578063b786808614610771578063c0bac1a8146107de578063c4d66de8146108a5578063cb7986f9146108e8578063cd6dc68714610954578063cea40aa8146109a1578063e4a8437914610a55578063f2fde38b14610a83578063f3c2cf6514610ac6575b600080fd5b34801561016557600080fd5b5061016e610b2b565b005b34801561017c57600080fd5b506101cb60048036038101908080359060200190929190803590602001908201803590602001919091929391929390803590602001908201803590602001919091929391929390505050610be7565b005b3480156101d957600080fd5b5061021860048036038101908080359060200190929190803573ffffffffffffffffffffffffffffffffffffffff169060200190929190505050610e6b565b60405180831515151581526020018281526020019250505060405180910390f35b34801561024557600080fd5b5061024e610fd6565b005b34801561025c57600080fd5b5061027b60048036038101908080359060200190929190505050611096565b60405180806020018060200180602001848103845287818151815260200191508051906020019060200280838360005b838110156102c65780820151818401526020810190506102ab565b50505050905001848103835286818151815260200191508051906020019060200280838360005b838110156103085780820151818401526020810190506102ed565b50505050905001848103825285818151815260200191508051906020019060200280838360005b8381101561034a57808201518184015260208101905061032f565b50505050905001965050505050505060405180910390f35b34801561036e57600080fd5b5061037761122e565b604051808215151515815260200191505060405180910390f35b34801561039d57600080fd5b506103ec60048036038101908080359060200190929190803590602001908201803590602001919091929391929390803590602001908201803590602001919091929391929390505050611241565b005b3480156103fa57600080fd5b50610419600480360381019080803590602001909291905050506113c9565b60405180831515151581526020018281526020019250505060405180910390f35b34801561044657600080fd5b5061044f6114c2565b6040518082815260200191505060405180910390f35b34801561047157600080fd5b50610490600480360381019080803590602001909291905050506114c8565b6040518082815260200191505060405180910390f35b3480156104b257600080fd5b506104bb6115cc565b005b3480156104c957600080fd5b506105126004803603810190808035906020019092919080359060200190929190803573ffffffffffffffffffffffffffffffffffffffff16906020019092919050505061168c565b005b34801561052057600080fd5b506105296119c1565b604051808273ffffffffffffffffffffffffffffffffffffffff1673ffffffffffffffffffffffffffffffffffffffff16815260200191505060405180910390f35b6105c76004803603810190808035906020019082018035906020019190919293919293908035906020019082018035906020019190919293919293908035906020019082018035906020019190919293919293905050506119e7565b005b3480156105d557600080fd5b506105f460048036038101908080359060200190929190505050611baf565b60405180806020018060200180602001848103845287818151815260200191508051906020019060200280838360005b8381101561063f578082015181840152602081019050610624565b50505050905001848103835286818151815260200191508051906020019060200280838360005b83811015610681578082015181840152602081019050610666565b50505050905001848103825285818151815260200191508051906020019060200280838360005b838110156106c35780820151818401526020810190506106a8565b50505050905001965050505050505060405180910390f35b6107036004803603810190808035906020019092919080359060200190929190505050611df1565b005b34801561071157600080fd5b5061071a6121e7565b6040518080602001828103825283818151815260200191508051906020019060200280838360005b8381101561075d578082015181840152602081019050610742565b505050509050019250505060405180910390f35b34801561077d57600080fd5b5061079c600480360381019080803590602001909291905050506122d1565b604051808273ffffffffffffffffffffffffffffffffffffffff1673ffffffffffffffffffffffffffffffffffffffff16815260200191505060405180910390f35b3480156107ea57600080fd5b5061088b600480360381019080803590602001908201803590602001908080601f0160208091040260200160405190810160405280939291908181526020018383808284378201915050505050509192919290803590602001908201803590602001908080601f0160208091040260200160405190810160405280939291908181526020018383808284378201915050505050509192919290505050612304565b604051808215151515815260200191505060405180910390f35b3480156108b157600080fd5b506108e6600480360381019080803573ffffffffffffffffffffffffffffffffffffffff1690602001909291905050506123ef565b005b3480156108f457600080fd5b506108fd612675565b6040518080602001828103825283818151815260200191508051906020019060200280838360005b83811015610940578082015181840152602081019050610925565b505050509050019250505060405180910390f35b34801561096057600080fd5b5061099f600480360381019080803573ffffffffffffffffffffffffffffffffffffffff169060200190929190803590602001909291905050506127c1565b005b3480156109ad57600080fd5b506109cc60048036038101908080359060200190929190505050612a4f565b6040518080602001848152602001838152602001828103825285818151815260200191508051906020019080838360005b83811015610a185780820151818401526020810190506109fd565b50505050905090810190601f168015610a455780820380516001836020036101000a031916815260200191505b5094505050505060405180910390f35b610a81600480360381019080803590602001908201803590602001919091929391929390505050612b2d565b005b348015610a8f57600080fd5b50610ac4600480360381019080803573ffffffffffffffffffffffffffffffffffffffff169060200190929190505050612d2b565b005b348015610ad257600080fd5b50610af160048036038101908080359060200190929190505050612e83565b6040518086151515158152602001858152602001848152602001838152602001821515151581526020019550505050505060405180910390f35b600160009054906101000a900473ffffffffffffffffffffffffffffffffffffffff1673ffffffffffffffffffffffffffffffffffffffff163373ffffffffffffffffffffffffffffffffffffffff16141515610b8757600080fd5b3373ffffffffffffffffffffffffffffffffffffffff166108fc3073ffffffffffffffffffffffffffffffffffffffff16319081150290604051600060405180830381858888f19350505050158015610be4573d6000803e3d6000fd5b50565b600080600080883373ffffffffffffffffffffffffffffffffffffffff166004600083815260200190815260200160002060009054906101000a900473ffffffffffffffffffffffffffffffffffffffff1673ffffffffffffffffffffffffffffffffffffffff16141515610c5b57600080fd5b600160149054906101000a900460ff16151515610c7757600080fd5b60008a10158015610c8c57506003805490508a105b1515610c9757600080fd5b8686905089899050141515610cab57600080fd5b60038a815481101515610cba57fe5b90600052602060002090600502019450600093505b88889050841015610da9578888858181101515610ce857fe5b90506020020135925060008310158015610d055750846001015483105b1515610d1057600080fd5b84600401600084815260200190815260200160002091508686858181101515610d3557fe5b90506020020135151515158260020160009054906101000a900460ff161515141515610d8e578686858181101515610d6957fe5b9050602002013515158260020160006101000a81548160ff0219169083151502179055505b610da2600185612f5390919063ffffffff16565b9350610ccf565b897f9915228889c3fc580aaf9ef33f0526ed631d30e98de792b8be111266ac1c257142338c8c8c8c604051808781526020018673ffffffffffffffffffffffffffffffffffffffff1673ffffffffffffffffffffffffffffffffffffffff168152602001806020018060200183810383528787828181526020019250602002808284378201915050838103825285858281815260200192506020028082843782019150509850505050505050505060405180910390a250505050505050505050565b6000806000806000863373ffffffffffffffffffffffffffffffffffffffff166004600083815260200190815260200160002060009054906101000a900473ffffffffffffffffffffffffffffffffffffffff1673ffffffffffffffffffffffffffffffffffffffff16141515610ee157600080fd5b60008810158015610ef6575060038054905088105b1515610f0157600080fd5b600388815481101515610f1057fe5b9060005260206000209060050201935060009550600092505b8360020154831015610fcb5783600301600084815260200190815260200160002091508673ffffffffffffffffffffffffffffffffffffffff168260000160009054906101000a900473ffffffffffffffffffffffffffffffffffffffff1673ffffffffffffffffffffffffffffffffffffffff161415610fb05760019550829450610fcb565b610fc4600184612f5390919063ffffffff16565b9250610f29565b505050509250929050565b600160009054906101000a900473ffffffffffffffffffffffffffffffffffffffff1673ffffffffffffffffffffffffffffffffffffffff163373ffffffffffffffffffffffffffffffffffffffff1614151561103257600080fd5b600160149054906101000a900460ff16151561104d57600080fd5b6000600160146101000a81548160ff0219169083151502179055507f7805862f689e2f13df9f062ff482ad3ad112aca9e0847911ed832e158c525b3360405160405180910390a1565b6060806060600080606080606060008060038b8154811015156110b557fe5b9060005260206000209060050201965086600101549550856040519080825280602002602001820160405280156110fb5781602001602082028038833980820191505090505b5094508560405190808252806020026020018201604052801561112d5781602001602082028038833980820191505090505b5093508560405190808252806020026020018201604052801561115f5781602001602082028038833980820191505090505b509250600091505b858210156112175786600401600083815260200190815260200160002090508060000154858381518110151561119957fe5b9060200190602002018181525050806001015484838151811015156111ba57fe5b90602001906020020181815250508060020160009054906101000a900460ff1683838151811015156111e857fe5b9060200190602002019015159081151581525050611210600183612f5390919063ffffffff16565b9150611167565b848484995099509950505050505050509193909250565b600160149054906101000a900460ff1681565b600080600080883373ffffffffffffffffffffffffffffffffffffffff166004600083815260200190815260200160002060009054906101000a900473ffffffffffffffffffffffffffffffffffffffff1673ffffffffffffffffffffffffffffffffffffffff161415156112b557600080fd5b600160149054906101000a900460ff161515156112d157600080fd5b86869050898990501415156112e557600080fd5b60008a101580156112fa57506003805490508a105b151561130557600080fd5b60038a81548110151561131457fe5b90600052602060002090600502019450600093505b888890508410156113bd57888885818110151561134257fe5b905060200201359250868685818110151561135957fe5b9050602002013573ffffffffffffffffffffffffffffffffffffffff1691506000831015801561138c5750846001015483105b151561139757600080fd5b6113a28a848461168c565b6113b6600185612f5390919063ffffffff16565b9350611329565b50505050505050505050565b60008060008060008086101580156113e5575060038054905086105b15156113f057600080fd5b6003868154811015156113ff57fe5b9060005260206000209060050201925060009450600091505b82600201548210156114ba5782600301600083815260200190815260200160002090503373ffffffffffffffffffffffffffffffffffffffff168160000160009054906101000a900473ffffffffffffffffffffffffffffffffffffffff1673ffffffffffffffffffffffffffffffffffffffff16141561149f57600194508193506114ba565b6114b3600183612f5390919063ffffffff16565b9150611418565b505050915091565b60025481565b600080600160009054906101000a900473ffffffffffffffffffffffffffffffffffffffff1673ffffffffffffffffffffffffffffffffffffffff163373ffffffffffffffffffffffffffffffffffffffff1614151561152757600080fd5b600254831415151561153857600080fd5b6002549050826002819055507f88baf3d55c73de3daf241b46e77dc4fbdeb5e9949c4ddff3761406b954134de0423383600254604051808581526020018473ffffffffffffffffffffffffffffffffffffffff1673ffffffffffffffffffffffffffffffffffffffff16815260200183815260200182815260200194505050505060405180910390a1600254915050919050565b600160009054906101000a900473ffffffffffffffffffffffffffffffffffffffff1673ffffffffffffffffffffffffffffffffffffffff163373ffffffffffffffffffffffffffffffffffffffff1614151561162857600080fd5b600160149054906101000a900460ff1615151561164457600080fd5b60018060146101000a81548160ff0219169083151502179055507f6985a02210a168e66602d3235cb6db0e70f92b3ba4d376a33c0f3d9434bff62560405160405180910390a1565b6000806000806000806000808a3373ffffffffffffffffffffffffffffffffffffffff166004600083815260200190815260200160002060009054906101000a900473ffffffffffffffffffffffffffffffffffffffff1673ffffffffffffffffffffffffffffffffffffffff1614151561170657600080fd5b600160149054906101000a900460ff1615151561172257600080fd5b60008c1015801561173757506003805490508c105b151561174257600080fd5b60038c81548110151561175157fe5b9060005260206000209060050201985060008b10158015611775575088600101548b105b151561178057600080fd5b8860040160008c815260200190815260200160002097506117a18c8b610e6b565b809750819850505060011515871515141561187657886003016000878152602001908152602001600020945084600101549350846002015492508a85600101819055504285600201819055508a8c8b73ffffffffffffffffffffffffffffffffffffffff167f58e8df1508156a02742ce0ddbe7f07efea0a069e9f3af45eacdd4462b6e80ce84288888e600001548f600101548d6002015460405180878152602001868152602001858152602001848152602001838152602001828152602001965050505050505060405180910390a46119b3565b4291506060604051908101604052808b73ffffffffffffffffffffffffffffffffffffffff1681526020018c8152602001838152508960030160008b60020154815260200190815260200160002060008201518160000160006101000a81548173ffffffffffffffffffffffffffffffffffffffff021916908373ffffffffffffffffffffffffffffffffffffffff160217905550602082015181600101556040820151816002015590505061193a60018a60020154612f5390919063ffffffff16565b89600201819055508a8c8b73ffffffffffffffffffffffffffffffffffffffff167f97b9b1d05a99593c6513e3ba5138709b2699bdca0bad47048d558dd88058cddb428c600001548d60010154886040518085815260200184815260200183815260200182815260200194505050505060405180910390a45b505050505050505050505050565b600160009054906101000a900473ffffffffffffffffffffffffffffffffffffffff1681565b600160149054906101000a900460ff16151515611a0357600080fd5b6002543410151515611a1457600080fd5b8181905084849050141515611a2857600080fd5b600160009054906101000a900473ffffffffffffffffffffffffffffffffffffffff1673ffffffffffffffffffffffffffffffffffffffff166108fc6002549081150290604051600060405180830381858888f19350505050158015611a92573d6000803e3d6000fd5b506000611aaa60025434612f6f90919063ffffffff16565b1115611b0c573373ffffffffffffffffffffffffffffffffffffffff166108fc611adf60025434612f6f90919063ffffffff16565b9081150290604051600060405180830381858888f19350505050158015611b0a573d6000803e3d6000fd5b505b611ba786868080601f016020809104026020016040519081016040528093929190818152602001838380828437820191505050505050858580806020026020016040519081016040528093929190818152602001838360200280828437820191505050505050848480806020026020016040519081016040528093929190818152602001838360200280828437820191505050505050612f88565b505050505050565b606080606060008060608060606000808a3373ffffffffffffffffffffffffffffffffffffffff166004600083815260200190815260200160002060009054906101000a900473ffffffffffffffffffffffffffffffffffffffff1673ffffffffffffffffffffffffffffffffffffffff16141515611c2d57600080fd5b60038c815481101515611c3c57fe5b906000526020600020906005020197508760020154965086604051908082528060200260200182016040528015611c825781602001602082028038833980820191505090505b50955086604051908082528060200260200182016040528015611cb45781602001602082028038833980820191505090505b50945086604051908082528060200260200182016040528015611ce65781602001602082028038833980820191505090505b509350600092505b86831015611dd95787600301600084815260200190815260200160002091508160000160009054906101000a900473ffffffffffffffffffffffffffffffffffffffff168684815181101515611d4057fe5b9060200190602002019073ffffffffffffffffffffffffffffffffffffffff16908173ffffffffffffffffffffffffffffffffffffffff168152505081600101548584815181101515611d8f57fe5b906020019060200201818152505081600201548484815181101515611db057fe5b9060200190602002018181525050611dd2600184612f5390919063ffffffff16565b9250611cee565b8585859a509a509a5050505050505050509193909250565b600080600080600080600080600160149054906101000a900460ff16151515611e1957600080fd5b60008a10158015611e2e57506003805490508a105b1515611e3957600080fd5b60038a815481101515611e4857fe5b9060005260206000209060050201975060008910158015611e6c5750876001015489105b1515611e7757600080fd5b8760040160008a81526020019081526020016000209650600015158760020160009054906101000a900460ff161515141515611eb257600080fd5b86600001543410151515611ec557600080fd5b600460008b815260200190815260200160002060009054906101000a900473ffffffffffffffffffffffffffffffffffffffff1673ffffffffffffffffffffffffffffffffffffffff166108fc88600001549081150290604051600060405180830381858888f19350505050158015611f42573d6000803e3d6000fd5b506000611f5c886000015434612f6f90919063ffffffff16565b1115611fc0573373ffffffffffffffffffffffffffffffffffffffff166108fc611f93896000015434612f6f90919063ffffffff16565b9081150290604051600060405180830381858888f19350505050158015611fbe573d6000803e3d6000fd5b505b611fc98a6113c9565b809650819750505060011515861515141561209e5787600301600086815260200190815260200160002093508360010154925083600201549150888460010181905550428460020181905550888a3373ffffffffffffffffffffffffffffffffffffffff167f58e8df1508156a02742ce0ddbe7f07efea0a069e9f3af45eacdd4462b6e80ce84287878d600001548e600101548c6002015460405180878152602001868152602001858152602001848152602001838152602001828152602001965050505050505060405180910390a46121db565b4290506060604051908101604052803373ffffffffffffffffffffffffffffffffffffffff1681526020018a8152602001828152508860030160008a60020154815260200190815260200160002060008201518160000160006101000a81548173ffffffffffffffffffffffffffffffffffffffff021916908373ffffffffffffffffffffffffffffffffffffffff160217905550602082015181600101556040820151816002015590505061216260018960020154612f5390919063ffffffff16565b8860020181905550888a3373ffffffffffffffffffffffffffffffffffffffff167f97b9b1d05a99593c6513e3ba5138709b2699bdca0bad47048d558dd88058cddb428b600001548c60010154876040518085815260200184815260200183815260200182815260200194505050505060405180910390a45b50505050505050505050565b6060806000600160009054906101000a900473ffffffffffffffffffffffffffffffffffffffff1673ffffffffffffffffffffffffffffffffffffffff163373ffffffffffffffffffffffffffffffffffffffff1614151561224857600080fd5b60038054905060405190808252806020026020018201604052801561227c5781602001602082028038833980820191505090505b509150600090505b6003805490508110156122c9578082828151811015156122a057fe5b90602001906020020181815250506122c2600182612f5390919063ffffffff16565b9050612284565b819250505090565b60046020528060005260406000206000915054906101000a900473ffffffffffffffffffffffffffffffffffffffff1681565b600080836040518082805190602001908083835b60208310151561233d5780518252602082019150602081019050602083039250612318565b6001836020036101000a0380198251168184511680821785525050505050509050019150509081526020016040518091039020826040518082805190602001908083835b6020831015156123a65780518252602082019150602081019050602083039250612381565b6001836020036101000a038019825116818451168082178552505050505050905001915050908152602001604051809103902060009054906101000a900460ff16905092915050565b6040805190810160405280600881526020017f5061757361626c650000000000000000000000000000000000000000000000008152506040805190810160405280600581526020017f312e392e300000000000000000000000000000000000000000000000000000008152506124658282612304565b15151561247157600080fd5b61247a83613375565b7fdd117a11c22118c9dee4b5a67ce578bc44529dce21ee0ccc439588fbb9fb4ea38282604051808060200180602001838103835285818151815260200191508051906020019080838360005b838110156124e15780820151818401526020810190506124c6565b50505050905090810190601f16801561250e5780820380516001836020036101000a031916815260200191505b50838103825284818151815260200191508051906020019080838360005b8381101561254757808201518184015260208101905061252c565b50505050905090810190601f1680156125745780820380516001836020036101000a031916815260200191505b5094505050505060405180910390a160016000836040518082805190602001908083835b6020831015156125bd5780518252602082019150602081019050602083039250612598565b6001836020036101000a0380198251168184511680821785525050505050509050019150509081526020016040518091039020826040518082805190602001908083835b6020831015156126265780518252602082019150602081019050602083039250612601565b6001836020036101000a038019825116818451168082178552505050505050905001915050908152602001604051809103902060006101000a81548160ff021916908315150217905550505050565b606080600080600560003373ffffffffffffffffffffffffffffffffffffffff1673ffffffffffffffffffffffffffffffffffffffff168152602001908152602001600020546040519080825280602002602001820160405280156126e95781602001602082028038833980820191505090505b50925060009150600090505b6003805490508110156127b8573373ffffffffffffffffffffffffffffffffffffffff166004600083815260200190815260200160002060009054906101000a900473ffffffffffffffffffffffffffffffffffffffff1673ffffffffffffffffffffffffffffffffffffffff16141561279d5780838381518110151561277857fe5b906020019060200201818152505061279a600183612f5390919063ffffffff16565b91505b6127b1600182612f5390919063ffffffff16565b90506126f5565b82935050505090565b6040805190810160405280600a81526020017f417070466163746f7279000000000000000000000000000000000000000000008152506040805190810160405280600181526020017f30000000000000000000000000000000000000000000000000000000000000008152506128378282612304565b15151561284357600080fd5b61284c846123ef565b826002819055507fdd117a11c22118c9dee4b5a67ce578bc44529dce21ee0ccc439588fbb9fb4ea38282604051808060200180602001838103835285818151815260200191508051906020019080838360005b838110156128ba57808201518184015260208101905061289f565b50505050905090810190601f1680156128e75780820380516001836020036101000a031916815260200191505b50838103825284818151815260200191508051906020019080838360005b83811015612920578082015181840152602081019050612905565b50505050905090810190601f16801561294d5780820380516001836020036101000a031916815260200191505b5094505050505060405180910390a160016000836040518082805190602001908083835b6020831015156129965780518252602082019150602081019050602083039250612971565b6001836020036101000a0380198251168184511680821785525050505050509050019150509081526020016040518091039020826040518082805190602001908083835b6020831015156129ff57805182526020820191506020810190506020830392506129da565b6001836020036101000a038019825116818451168082178552505050505050905001915050908152602001604051809103902060006101000a81548160ff02191690831515021790555050505050565b60606000806000600385815481101515612a6557fe5b906000526020600020906005020190508060000181600101548260020154828054600181600116156101000203166002900480601f016020809104026020016040519081016040528092919081815260200182805460018160011615610100020316600290048015612b185780601f10612aed57610100808354040283529160200191612b18565b820191906000526020600020905b815481529060010190602001808311612afb57829003601f168201915b50505050509250935093509350509193909250565b606080600160149054906101000a900460ff16151515612b4c57600080fd5b6002543410151515612b5d57600080fd5b600160009054906101000a900473ffffffffffffffffffffffffffffffffffffffff1673ffffffffffffffffffffffffffffffffffffffff166108fc6002549081150290604051600060405180830381858888f19350505050158015612bc7573d6000803e3d6000fd5b506000612bdf60025434612f6f90919063ffffffff16565b1115612c41573373ffffffffffffffffffffffffffffffffffffffff166108fc612c1460025434612f6f90919063ffffffff16565b9081150290604051600060405180830381858888f19350505050158015612c3f573d6000803e3d6000fd5b505b6001604051908082528060200260200182016040528015612c715781602001602082028038833980820191505090505b5091506000826000815181101515612c8557fe5b90602001906020020181815250506001604051908082528060200260200182016040528015612cc35781602001602082028038833980820191505090505b50905063bbf81e00816000815181101515612cda57fe5b9060200190602002018181525050612d2584848080601f0160208091040260200160405190810160405280939291908181526020018383808284378201915050505050508383612f88565b50505050565b600160009054906101000a900473ffffffffffffffffffffffffffffffffffffffff1673ffffffffffffffffffffffffffffffffffffffff163373ffffffffffffffffffffffffffffffffffffffff16141515612d8757600080fd5b600073ffffffffffffffffffffffffffffffffffffffff168173ffffffffffffffffffffffffffffffffffffffff1614151515612dc357600080fd5b8073ffffffffffffffffffffffffffffffffffffffff16600160009054906101000a900473ffffffffffffffffffffffffffffffffffffffff1673ffffffffffffffffffffffffffffffffffffffff167f8be0079c531659141344cd1fd0a4f28419497f9722a3daafe3b4186f6b6457e060405160405180910390a380600160006101000a81548173ffffffffffffffffffffffffffffffffffffffff021916908373ffffffffffffffffffffffffffffffffffffffff16021790555050565b6000806000806000806000806000612e9a8a6113c9565b809550819a505050600115158915151415612f355760038a815481101515612ebe57fe5b906000526020600020906005020192508260030160008581526020019081526020016000209150816001015497508260040160008981526020019081526020016000209050806001015496508160020154955042612f2d83600201548360010154612f5390919063ffffffff16565b119450612f46565b600097506000965060009550600094505b5050505091939590929450565b60008183019050828110151515612f6657fe5b80905092915050565b6000828211151515612f7d57fe5b818303905092915050565b60008061301c60016003606060405190810160405280898152602001885181526020016000815250908060018154018082558091505090600182039060005260206000209060050201600090919290919091506000820151816000019080519060200190612ff7929190613633565b5060208201518160010155604082015181600201555050612f6f90919063ffffffff16565b9150336004600084815260200190815260200160002060006101000a81548173ffffffffffffffffffffffffffffffffffffffff021916908373ffffffffffffffffffffffffffffffffffffffff1602179055506130c36001600560003373ffffffffffffffffffffffffffffffffffffffff1673ffffffffffffffffffffffffffffffffffffffff16815260200190815260200160002054612f5390919063ffffffff16565b600560003373ffffffffffffffffffffffffffffffffffffffff1673ffffffffffffffffffffffffffffffffffffffff16815260200190815260200160002081905550600090505b60038281548110151561311a57fe5b90600052602060002090600502016001015481101561320357606060405190810160405280858381518110151561314d57fe5b906020019060200201518152602001848381518110151561316a57fe5b9060200190602002015181526020016000151581525060038381548110151561318f57fe5b90600052602060002090600502016004016000838152602001908152602001600020600082015181600001556020820151816001015560408201518160020160006101000a81548160ff0219169083151502179055509050506131fc600182612f5390919063ffffffff16565b905061310b565b817f631da1651c04ffead99053a9d1c3424a67b2bc55b5c80c0ed80616316495623b4233888888604051808681526020018573ffffffffffffffffffffffffffffffffffffffff1673ffffffffffffffffffffffffffffffffffffffff168152602001806020018060200180602001848103845287818151815260200191508051906020019080838360005b838110156132aa57808201518184015260208101905061328f565b50505050905090810190601f1680156132d75780820380516001836020036101000a031916815260200191505b50848103835286818151815260200191508051906020019060200280838360005b838110156133135780820151818401526020810190506132f8565b50505050905001848103825285818151815260200191508051906020019060200280838360005b8381101561335557808201518184015260208101905061333a565b505050509050019850505050505050505060405180910390a25050505050565b6040805190810160405280600781526020017f4f776e61626c65000000000000000000000000000000000000000000000000008152506040805190810160405280600581526020017f312e392e300000000000000000000000000000000000000000000000000000008152506133eb8282612304565b1515156133f757600080fd5b82600160006101000a81548173ffffffffffffffffffffffffffffffffffffffff021916908373ffffffffffffffffffffffffffffffffffffffff1602179055507fdd117a11c22118c9dee4b5a67ce578bc44529dce21ee0ccc439588fbb9fb4ea38282604051808060200180602001838103835285818151815260200191508051906020019080838360005b8381101561349f578082015181840152602081019050613484565b50505050905090810190601f1680156134cc5780820380516001836020036101000a031916815260200191505b50838103825284818151815260200191508051906020019080838360005b838110156135055780820151818401526020810190506134ea565b50505050905090810190601f1680156135325780820380516001836020036101000a031916815260200191505b5094505050505060405180910390a160016000836040518082805190602001908083835b60208310151561357b5780518252602082019150602081019050602083039250613556565b6001836020036101000a0380198251168184511680821785525050505050509050019150509081526020016040518091039020826040518082805190602001908083835b6020831015156135e457805182526020820191506020810190506020830392506135bf565b6001836020036101000a038019825116818451168082178552505050505050905001915050908152602001604051809103902060006101000a81548160ff021916908315150217905550505050565b828054600181600116156101000203166002900490600052602060002090601f016020900481019282601f1061367457805160ff19168380011785556136a2565b828001600101855582156136a2579182015b828111156136a1578251825591602001919060010190613686565b5b5090506136af91906136b3565b5090565b6136d591905b808211156136d15760008160009055506001016136b9565b5090565b905600a165627a7a723058201dd7100c881b907342c54ec1860f0a9aad4fed768fb8fc095c20cd7ca215db4b0029",
  "source": "pragma solidity ^0.4.21;\r\nimport \"./License.sol\";\r\n\r\ncontract LicenseV4 is License {\r\n\r\n  function aCustomerByOwner(uint256 _appId,address _address) public view isAppOwner(_appId) returns(bool isCustomer, uint256 customerId){\r\n    require(_appId >= 0 && _appId < apps.length);\r\n    App storage app = apps[_appId];\r\n    isCustomer = false;\r\n    for (uint256 i = 0; i < app.customersNum; i=i.add(1)) {\r\n      Customer storage customer = app.toCustomer[i];\r\n      if(customer.addr == _address){\r\n        isCustomer = true;\r\n        customerId = i;\r\n        break;\r\n      }\r\n    }\r\n  }\r\n\r\n  function approveLicense(uint256 _appId,uint256 _licenseId, address _address) public  isAppOwner(_appId) whenNotPaused {\r\n    require(_appId >= 0 && _appId < apps.length);\r\n    App storage app = apps[_appId];\r\n    require(_licenseId >= 0 && _licenseId < app.licenseTypeNum);\r\n    LicenseType storage license = app.toLicenseType[_licenseId];\r\n\r\n    // could not apply license already offlineAppLicense\r\n    /* require(license.offline==false); */\r\n    /* require(msg.value >= license.fee);\r\n    appToOwner[_appId].transfer(license.fee);\r\n    if(msg.value.sub(license.fee) > 0){\r\n      msg.sender.transfer(msg.value.sub(license.fee));\r\n    } */\r\n    bool isCustomer;\r\n    uint256 customerId;\r\n    (isCustomer, customerId) = aCustomerByOwner(_appId,_address);\r\n    if(isCustomer == true){\r\n      Customer storage customer = app.toCustomer[customerId];\r\n      uint256 oldLicenseId = customer.licenseId;\r\n      uint256 oldLicenseStartTime = customer.licenseStartTime;\r\n      customer.licenseId = _licenseId;\r\n      customer.licenseStartTime = now;\r\n      /* LicenseType storage oldLicense = app.toLicenseType[oldLicenseId]; */\r\n      emit UpdateCustomer(now, _address, _appId, oldLicenseId, oldLicenseStartTime, _licenseId, license.fee, license.validateTime, customer.licenseStartTime);\r\n\r\n    }else{\r\n      uint256 licenseStartTime = now;\r\n      app.toCustomer[app.customersNum]= Customer(_address,_licenseId,licenseStartTime);\r\n      app.customersNum = app.customersNum.add(1);\r\n      emit NewCustomer(now, _address, _appId, _licenseId, license.fee, license.validateTime, licenseStartTime);\r\n    }\r\n  }\r\n  function multiApproveLicense(uint256 _appId, uint256[] _licenseIds, address[] _addresses) external isAppOwner(_appId) whenNotPaused {\r\n    require(_licenseIds.length == _addresses.length );\r\n    require(_appId >= 0 && _appId < apps.length);\r\n    App storage app = apps[_appId];\r\n    for (uint256 i = 0; i < _licenseIds.length; i=i.add(1)) {\r\n      uint _licenseId = _licenseIds[i];\r\n      address _address = _addresses[i];\r\n      require(_licenseId >= 0 && _licenseId < app.licenseTypeNum);\r\n      approveLicense(_appId,_licenseId,_address);\r\n    }\r\n  }\r\n  /* function () payable public {} */\r\n\r\n}\r\n",
  "sourcePath": "D:\\work\\creative\\smartContract\\licenseContract\\contracts\\LicenseV4.sol",
  "compiler": {
    "name": "solc",
    "version": "0.4.24+commit.e67f0147.Emscripten.clang"
  },
  "schemaVersion": "2.0.1",
  "updatedAt": "2018-09-30T03:33:40.924Z"
}